:100000000C9458000C9480000C9480000C94800098
:100010000C9480000C9480000C9480000C94800060
:100020000C9480000C9480000C9480000C94800050
:100030000C9480000C9480000C9480000C94800040
:100040000C94B2050C9480000C9480050C945A0515
:100050000C9480000C9480000C9480000C94800020
:100060000C94FC050C948000000000002500280082
:100070002B00040404040404040402020202020229
:10008000030303030303010204081020408001025C
:1000900004081020010204081020000000080002DB
:1000A00001000003040700000000000000002A0710
:1000B00011241FBECFEFD8E0DEBFCDBF11E0A0E01E
:1000C000B1E0E8E5F7E102C005900D92A83CB10768
:1000D000D9F723E0A8ECB1E001C01D92AD33B2071F
:1000E000E1F710E0C8E5D0E004C02197FE010E94CE
:1000F0009F0BC735D107C9F70E946F070C94AA0B55
:100100000C940000282F30918402313208F04AC04C
:10011000809160028111FCCF9091830242E0409374
:10012000600220935F022FEF20935E0210925D0227
:1001300030935C02E3E6F2E0ACE3B2E020E0321799
:1001400021F041914D932F5FFACF10923B02209105
:100150003B02990F922B90933B0290913A0291307F
:1001600061F410923A0290913B029093BB009091FF
:10017000BC0093FDF8CF95EC01C095EE9093BC00C8
:10018000909160029230E1F390915E029F3F79F08E
:1001900080915E02803241F080915E02803331F0C6
:1001A00084E005C081E003C082E001C083E01092DA
:1001B0006202109284021092610208950F931F93BD
:1001C000CF93DF93162F072FCEE2D3E09A8121E061
:1001D0002093610290938302109262021092840233
:1001E000A881B981ED91FC9111970190F081E02DEA
:1001F000682FCD01099588819981DC01ED91FC91F1
:100200000190F081E02D602F099588819981DC01B2
:10021000ED91FC910190F081E02D612F099581E035
:10022000DF91CF911F910F910C94820090E0FC011F
:10023000E656FF4F2491FC01EA57FF4F3491FC0131
:10024000EE58FF4FE491EE23B1F1222339F1233030
:1002500091F038F42130A9F0223001F584B58F7D7A
:1002600012C0273091F02830A1F02430B9F48091E9
:1002700080008F7D03C0809180008F778093800005
:100280000DC084B58F7784BD09C08091B0008F7791
:1002900003C08091B0008F7D8093B000F0E0EE0F3E
:1002A000FF1FE859FF4FA591B4918FB7F894EC91D7
:1002B000E32BEC938FBF0895CF92DF92EF92FF92E2
:1002C0000F931F93CF93DF936C017A018B01C0E0F2
:1002D000D0E0CE15DF0581F0D8016D918D01D601FA
:1002E000ED91FC910190F081E02DC6010995892BDB
:1002F00011F02196EECF7E01C701DF91CF911F91C2
:100300000F91FF90EF90DF90CF900895089508959A
:10031000FC01538D448D252F30E0842F90E0821B0B
:10032000930B541710F0CF96089501970895FC0190
:10033000918D828D981761F0828DDF01A80FB11D1C
:100340005D968C91928D9F5F9F73928F90E0089540
:100350008FEF9FEF0895FC01918D828D981731F0FA
:10036000828DE80FF11D858D90E008958FEF9FEF4E
:100370000895FC01918D228D892F90E0805C9F4F24
:10038000821B91098F739927089585E892E00E9456
:10039000B90121E0892B09F420E0822F0895FC01A6
:1003A000848DDF01A80FB11DA35ABF4F2C91848DFE
:1003B00090E001968F739927848FA689B7892C9333
:1003C000A089B1898C91837080648C93938D848D86
:1003D000981306C00288F389E02D80818F7D808389
:1003E0000895EF92FF920F931F93CF93DF93EC0149
:1003F00081E0888F9B8D8C8D981305C0E889F989E1
:10040000808185FD26C0F62E0B8D10E00F5F1F4FFB
:100410000F731127E02E8C8DE8120CC00FB607FC6D
:10042000FACFE889F989808185FFF5CFCE010E9456
:10043000CF01F1CF8B8DFE01E80FF11DE35AFF4F85
:10044000F0829FB7F8940B8FEA89FB8980818062E4
:100450000AC09FB7F894EE89FF896083E889F9891B
:1004600080818370806480839FBF81E090E0DF9112
:10047000CF911F910F91FF90EF900895CF93DF934D
:10048000EC01888D8823C9F0EA89FB89808185FD8C
:1004900005C0A889B9898C9186FD0FC00FB607FCED
:1004A000F5CF808185FFF2CFA889B9898C9185FF2E
:1004B000EDCFCE010E94CF01E7CFDF91CF9108951C
:1004C00080E090E0892B29F00E94C50181110C94F5
:1004D000000008953FB7F8948091100290911102A6
:1004E000A0911202B091130226B5A89B05C02F3F20
:1004F00019F00196A11DB11D3FBFBA2FA92F982F4A
:100500008827820F911DA11DB11DBC01CD0142E0C4
:10051000660F771F881F991F4A95D1F708958F920C
:100520009F92AF92BF92CF92DF92EF92FF926B01B8
:100530007C010E946A024B015C01C114D104E104F8
:10054000F104F1F00E946A02DC01CB0188199909DB
:10055000AA09BB09883E9340A105B10570F321E0CB
:10056000C21AD108E108F10888EE880E83E0981ECF
:10057000A11CB11CC114D104E104F10419F7DDCFB1
:10058000FF90EF90DF90CF90BF90AF909F908F90B3
:10059000089585ED8093BC008091BC0084FDFCCF64
:1005A0001092600208954091E801262F30E0240F58
:1005B000311D21323105DCF4209160022430C9F470
:1005C000FC0180E090E0861758F43091E801219119
:1005D000DC01A853BE4FA30FB11D2C930196F3CF9E
:1005E0008091E801680F6093E80180E0089581E060
:1005F000089582E008950895E0911902809118020B
:10060000E81730F4F0E0E65EFD4F808190E0089559
:100610008FEF9FEF0895909119028091180298171B
:1006200050F4E92FF0E0E65EFD4F208130E09F5F5F
:100630009093190202C02FEF3FEFC90108958091F6
:10064000180290E020911902821B91090895CF921F
:10065000DF92EF92FF920F931F93CF93DF937C0172
:10066000CB018A0120916102222389F0EB016B0109
:10067000C40ED51ECC15DD0569F06991D701ED9149
:10068000FC910190F081E02DC7010995F3CF642F13
:100690000E94D302C801DF91CF911F910F91FF906B
:1006A000EF90DF90CF900895CF93DF931F92CDB757
:1006B000DEB76983209161022223D1F02091840268
:1006C000203240F021E030E0FC013383228380E0DF
:1006D00090E015C080916202E82FF0E0ED59FD4FE7
:1006E000998190838F5F809362028093840205C01A
:1006F00061E0CE0101960E94D30281E090E00F906C
:10070000DF91CF910895089580E090E008950097DB
:1007100069F0FC0101900020E9F73197AF01481B17
:10072000590BBC0185E892E00C945C0180E090E0FC
:100730000895CF93DF930E948703EC0184E291E058
:100740000E9487038C0F9D1FDF91CF9108952F92F8
:100750003F924F925F926F927F928F929F92AF9251
:10076000BF92CF92DF92EF92FF920F931F93CF939E
:10077000DF93CDB7DEB7A4970FB6F894DEBF0FBEF8
:10078000CDBF4B015C01F42E9B01AC010E94780BA4
:10079000882319F087E291E027C024013501E8940D
:1007A00077F82FEF3FEF4FE75FE7C301B2010E94F9
:1007B000780B81110DC02FEF3FEF4FE75FE7C301CB
:1007C000B2010E94AE0918161CF48BE291E00CC035
:1007D0002FEF3FEF4FE75FE4C501B4010E94060B26
:1007E00018162CF48FE291E00E948703B8C02FEF17
:1007F0003FEF4FE75FECC501B4010E94AE0987FDF2
:10080000F1CF20E030E0A901C501B4010E94AE099A
:1008100087FF0BC06DE285E892E00E94F1013C0188
:10082000B7FAB094B7F8B09402C0612C712C10E004
:1008300060E070E080E09FE3F11641F020E030E0FE
:1008400040E251E40E94B3091F5FF6CFA501940175
:100850000E9442094B015C010E94250A6AA3C72E2F
:10086000D82EE92E19A2262F372F482F592F8E0167
:100870000F5D1F4F0BA31CA39AE0292E312C412C96
:10088000512CCA01B901A20191010E947D0B605D4A
:10089000F80162938F01211531054105510589F752
:1008A000CF010E9487038301080F191FFF2009F45D
:1008B00055C06AA17C2D8D2D9E2D0E94540A9B014E
:1008C000AC01C501B4010E9441094B015C016EE21B
:1008D00085E892E00E94F101080F191F8AE0282E96
:1008E000312C412C512C20E030E040E251E4C50194
:1008F000B4010E940B0B4B015C010E94250A9B0175
:1009000040E050E019A2CBA0DCA0762E3AA3642EE2
:10091000E52ECA01B901A20191010E947D0B605D23
:10092000F60162936F01211531054105510589F7E3
:10093000CF010E948703080F191F672D7AA1862D0A
:100940009E2D0E94540A9B01AC01C501B4010E9476
:1009500041094B015C01FA94F110C5CFC801A4967E
:100960000FB6F894DEBF0FBECDBFDF91CF911F91C0
:100970000F91FF90EF90DF90CF90BF90AF909F903E
:100980008F907F906F905F904F903F902F90089541
:100990001F93CF93DF93EB019091300321E02093DD
:1009A0006102909383021092620210928402A091DD
:1009B0002E03B0912F03ED91FC9111970190F081DE
:1009C000E02D682FCD01099581E00E94820061E051
:1009D00070E080E090E00E948F02209130038091CF
:1009E00060028111FCCF81E08093600280935F02FE
:1009F0009FEF90935E0210925D0280935C02809361
:100A00003B0290913B02822F880F892B80933B02FF
:100A100080913A02813061F410923A0280913B0257
:100A20008093BB008091BC0083FDF8CF85EC01C0B2
:100A300085EE8093BC00809160028130E1F380916B
:100A40005D02823018F490915D0201C092E0ACE347
:100A5000B2E0EAE1F2E080E0891721F02D912193E4
:100A60008F5FFACF109219028093180280912E03A3
:100A700090912F03DC01ED91FC910284F385E02D30
:100A80000995182F80912E0390912F03DC01ED9191
:100A9000FC910284F385E02D099520E030E0312FB0
:100AA000822B932B99838883DF91CF911F91089597
:100AB0000E94A50B1F920F920FB60F9211242F9335
:100AC0003F934F935F936F937F938F939F93AF93D6
:100AD000BF93EF93FF9385E892E00E94CF01FF91CF
:100AE000EF91BF91AF919F918F917F916F915F91A6
:100AF0004F913F912F910F900FBE0F901F9018951F
:100B00001F920F920FB60F9211242F938F939F93E2
:100B1000EF93FF93E0919502F09196028081E0912E
:100B20009B02F0919C0282FD12C0908180919E02F6
:100B30008F5F8F7320919F02821751F0E0919E0288
:100B4000F0E0EB57FD4F958F80939E0201C08081AE
:100B5000FF91EF919F918F912F910F900FBE0F906A
:100B60001F9018951F920F920FB60F9211242F937A
:100B70003F938F939F93AF93BF9380910C0290917B
:100B80000D02A0910E02B0910F0230910B0223E0F2
:100B9000230F2D3720F40196A11DB11D05C026E8B5
:100BA000230F0296A11DB11D20930B0280930C020E
:100BB00090930D02A0930E02B0930F028091100249
:100BC00090911102A0911202B09113020196A11D01
:100BD000B11D8093100290931102A0931202B09362
:100BE0001302BF91AF919F918F913F912F910F90E1
:100BF0000FBE0F901F9018951F920F920FB60F9275
:100C000011242F933F934F935F936F937F938F9311
:100C10009F93AF93BF93EF93FF938091B900887F29
:100C2000803609F49CC068F5883209F45BC090F402
:100C3000803109F454C038F4882309F4F6C08830B0
:100C400009F44DC0F6C0883109F44CC0803209F473
:100C50005DC0EFC0803409F468C048F4803309F403
:100C600055C0883309F0E5C080935E02D8C0803556
:100C700009F44FC0883509F45DC0883409F0D9C043
:100C8000D6C0883909F4C7C0A8F4883709F467C00A
:100C900038F4883609F463C0803709F460C0C9C0ED
:100CA000883809F4B8C0803909F45FC0803809F089
:100CB000C0C05BC0803B09F486C038F4803A09F4B8
:100CC00066C0883A09F47FC0B4C0803C09F4A7C06C
:100CD000883C09F4A4C0883B09F48AC0AAC080916A
:100CE0003B0210C090915D0280915C02981770F5F4
:100CF000E0915D0281E08E0F80935D02F0E0E45CA4
:100D0000FD4F80818093BB0085EC86C080935E029E
:100D10008EC0E0915D0281E08E0F80935D02809134
:100D2000BB00F0E0E45CFD4F808390915D02809118
:100D30005C026EC0E0915D0281E08E0F80935D02E7
:100D40008091BB00F0E0E45CFD4F808380915F0206
:100D500081116DC081E080933A0284EA61C083E032
:100D60008093600210920A02CFCF80910A028032F3
:100D700008F051C0E0910A0281E08E0F80930A02D0
:100D80008091BB00F0E0E651FE4F8083BDCF85EC43
:100D90008093BC001092600280910A02803230F48D
:100DA000E0910A02F0E0E651FE4F108260910A02E3
:100DB00070E0E0911402F09115028AEE91E009953D
:100DC00010920A0236C084E0809360021092E9011A
:100DD0001092E801E0911602F091170209958091B6
:100DE000E801811105C081E08093E8011092C801FB
:100DF000E091E90181E08E0F8093E901F0E0E85392
:100E0000FE4F80818093BB009091E9018091E801C1
:100E1000981708F479CF85E88093BC000AC085EC68
:100E20008093BC001092600204C010925E020E9487
:100E3000C902FF91EF91BF91AF919F918F917F91E7
:100E40006F915F914F913F912F910F900FBE0F9037
:100E50001F901895E5E8F2E01382128288EE93E085
:100E6000A0E0B0E084839583A683B78324E031E0DB
:100E70003183208325EC30E03587248724EC30E073
:100E80003787268720EC30E0318B208B21EC30E057
:100E9000338B228B22EC30E0358B248B26EC30E038
:100EA000378B268B118E128E138E148EE2E2F3E0B6
:100EB0001382128284839583A683B78386E191E0AF
:100EC00091838083EEE2F3E084E4828317821086CC
:100ED0001186128613861486158616860895CF937A
:100EE000DF93CDB7DEB72A970FB6F894DEBF0FBEFB
:100EF000CDBF789484B5826084BD84B5816084BDA3
:100F000085B5826085BD85B5816085BD80916E00A7
:100F1000816080936E0010928100809181008260D8
:100F20008093810080918100816080938100809115
:100F300080008160809380008091B1008460809304
:100F4000B1008091B00081608093B00080917A0000
:100F5000846080937A0080917A00826080937A0026
:100F600080917A00816080937A0080917A00806815
:100F700080937A001092C100E0919502F091960260
:100F800082E08083E0919102F09192021082E091E0
:100F90009302F091940280E1808310929D02E0918F
:100FA0009902F0919A0286E08083E0919702F09195
:100FB0009802808180618083E0919702F09198028D
:100FC000808188608083E0919702F091980280810F
:100FD00080688083E0919702F091980280818F7DF4
:100FE000808383E391E00E94990382E293E09093EF
:100FF0002F0380932E031092190210921802109260
:101000006202109284021092600281E080935F027B
:1010100010923A0282E10E94160183E10E941601B9
:101020008091B9008E7F8093B9008091B9008D7F47
:101030008093B90088E48093B80085E48093BC0075
:1010400086E891E0909317028093160287E891E07A
:10105000909315028093140280E090E1A0E0B0E04C
:101060008093310390933203A0933303B0933403FE
:101070008AE090E0A0E0B0E08093350390933603DF
:10108000A0933703B093380380E090E0A0E0B0E491
:101090008093390390933A03A0933B03B0933C03AE
:1010A00060E070E185E00E94DE006FE979E380E0B6
:1010B0000E94DE008AE391E00E949903BE016F5F07
:1010C0007F4F81E00E94C80469817A81072E000C5D
:1010D000880B990B0E94560A2AE037ED43E25CE345
:1010E0000E940B0B6B017C01BE016F5F7F4F82E0A2
:1010F0000E94C80469817A8183E0769567958A9514
:10110000E1F7660F771F660F771F072E000C880B1D
:10111000990B0E94560A2FE632E143E85AE30E94F7
:101120000B0B4B015C01609131037091320385E040
:101130000E94DE00BE016F5F7F4F84E00E94C80402
:1011400069817A81072E000C880B990B0E94560A40
:101150002B013C0160913503709136038091370378
:10116000909138030E94540A9B01AC01C301B20163
:101170000E94B3096B837C838D839E8360913103CE
:101180007091320385E00E94DE00BE016F5F7F4FE9
:1011900083E00E94C80469817A81072E000C880BC5
:1011A000990B0E94560A2091390330913A034091DD
:1011B0003B0350913C030E940B0B6F837887898718
:1011C0009A8720E030E04AE754E4C701B6010E9464
:1011D000B309A50194010E9442092B013C0188E654
:1011E00091E00E94870342E0C501B4010E94A70379
:1011F00088E791E00E9499038BE791E00E948703C2
:1012000042E0C701B6010E94A7038BE891E00E946B
:1012100099038FE891E00E94870342E0C301B20185
:101220000E94A70388E791E00E9499038FE991E06B
:101230000E94870342E06B817C818D819E810E94A8
:10124000A7038FEA91E00E94990383EB91E00E944B
:10125000870342E06F81788589859A850E94A7037C
:1012600083EC91E00E94990386E291E00E94990349
:1012700060ED77E080E090E00E948F020E946002C3
:101280001DCF5058BB27AA270E9459090C94CC0A9D
:101290000E94BE0A38F00E94C50A20F039F49F3F30
:1012A00019F426F40C94BB0A0EF4E095E7FB0C94B9
:1012B000B50AE92F0E94DD0A58F3BA1762077307CF
:1012C0008407950720F079F4A6F50C94FF0A0EF434
:1012D000E0950B2EBA2FA02D0B01B90190010C0146
:1012E000CA01A0011124FF27591B99F0593F50F45E
:1012F000503E68F11A16F040A22F232F342F4427B6
:10130000585FF3CF469537952795A795F0405395AD
:10131000C9F77EF41F16BA0B620B730B840BBAF07D
:101320009150A1F0FF0FBB1F661F771F881FC2F7E8
:101330000EC0BA0F621F731F841F48F487957795FC
:101340006795B795F7959E3F08F0B0CF9395880FB6
:1013500008F09927EE0F9795879508950E94910AB6
:1013600008F481E008950E94C7090C94CC0A0E94F9
:10137000C50A58F00E94BE0A40F029F45F3F29F0E8
:101380000C94B50A51110C94000B0C94BB0A0E94EA
:10139000DD0A68F39923B1F3552391F3951B550B9F
:1013A000BB27AA2762177307840738F09F5F5F4F38
:1013B000220F331F441FAA1FA9F335D00E2E3AF077
:1013C000E0E832D091505040E695001CCAF72BD08F
:1013D000FE2F29D0660F771F881FBB1F26173707E0
:1013E0004807AB07B0E809F0BB0B802DBF01FF2712
:1013F00093585F4F3AF09E3F510578F00C94B50A30
:101400000C94000B5F3FE4F3983ED4F386957795F8
:101410006795B795F7959F5FC9F7880F911D9695CA
:10142000879597F90895E1E0660F771F881FBB1F26
:10143000621773078407BA0720F0621B730B840BD3
:10144000BA0BEE1F88F7E09508950E94E50A88F030
:101450009F5798F0B92F9927B751B0F0E1F0660F78
:10146000771F881F991F1AF0BA95C9F714C0B130B9
:1014700091F00E94FF0AB1E008950C94FF0A672FD3
:10148000782F8827B85F39F0B93FCCF386957795E8
:101490006795B395D9F73EF49095809570956195D1
:1014A0007F4F8F4F9F4F0895E89409C097FB3EF4FC
:1014B00090958095709561957F4F8F4F9F4F9923A1
:1014C000A9F0F92F96E9BB279395F695879577951F
:1014D0006795B795F111F8CFFAF4BB0F11F460FFDF
:1014E0001BC06F5F7F4F8F4F9F4F16C0882311F037
:1014F00096E911C0772321F09EE8872F762F05C04B
:10150000662371F096E8862F70E060E02AF09A95E5
:10151000660F771F881FDAF7880F9695879597F9DA
:101520000895990F0008550FAA0BE0E8FEEF161674
:101530001706E807F907C0F012161306E407F507C7
:1015400098F0621B730B840B950B39F40A2661F03B
:10155000232B242B252B21F408950A2609F4A140DE
:10156000A6958FEF811D811D089597F99F6780E8EB
:1015700070E060E008959FEF80EC089500240A94E5
:101580001616170618060906089500240A9412165E
:101590001306140605060895092E0394000C11F491
:1015A000882352F0BB0F40F4BF2B11F460FF04C03E
:1015B0006F5F7F4F8F4F9F4F089557FD9058440F97
:1015C000551F59F05F3F71F04795880F97FB991FA2
:1015D00061F09F3F79F0879508951216130614065F
:1015E000551FF2CF4695F1DF08C0161617061806EC
:1015F000991FF1CF86957105610508940895E894C7
:10160000BB2766277727CB0197F908950E94910A97
:1016100008F48FEF08950E941E0B0C94CC0A0E94D0
:10162000BE0A38F00E94C50A20F0952311F00C94F0
:10163000B50A0C94BB0A11240C94000B0E94DD0A1D
:1016400070F3959FC1F3950F50E0551F629FF00115
:10165000729FBB27F00DB11D639FAA27F00DB11D2E
:10166000AA1F649F6627B00DA11D661F829F2227B7
:10167000B00DA11D621F739FB00DA11D621F839F3E
:10168000A00D611D221F749F3327A00D611D231F14
:10169000849F600D211D822F762F6A2F11249F5762
:1016A00050409AF0F1F088234AF0EE0FFF1FBB1F65
:1016B000661F771F881F91505040A9F79E3F510524
:1016C00080F00C94B50A0C94000B5F3FE4F3983E55
:1016D000D4F3869577956795B795F795E7959F5FCE
:1016E000C1F7FE2B880F911D9695879597F9089560
:1016F0000E94910A880B990B0895A1E21A2EAA1B49
:10170000BB1BFD010DC0AA1FBB1FEE1FFF1FA217B1
:10171000B307E407F50720F0A21BB30BE40BF50BAE
:10172000661F771F881F991F1A9469F76095709537
:10173000809590959B01AC01BD01CF010895EE0FFE
:10174000FF1F0590F491E02D099481E090E0F8945A
:081750000C94AA0BF894FFCFE2
:1017580000000000F1015C0188013E02B901970117
:10176800AB0100000000540327038403FB021F039E
:101778000B03FC020D0A006E616E00696E66006F55
:1017880076660048656C6C6F21004D6561737572F3
:10179800696E6720766F6C7461676520616E64207E
:1017A80063757272656E74207769746820494E415A
:1017B800323139202E2E2E0042757320566F6C74EC
:1017C8006167653A202020002056005368756E74C2
:1017D80020566F6C746167653A2000206D56004C86
:1017E8006F616420566F6C746167653A202000430E
:1017F800757272656E743A20202020202020002007
:101808006D4100506F7765723A20202020202020FB
:08181800202000206D570000A4
:00000001FF
